:100000000C9430070C9458070C9458070C9458071C
:100010000C9458070C9458070C9458070C945807E4
:100020000C9458070C9458070C94B90B0C94280C9A
:100030000C9458070C9458070C9458070C945807C4
:100040000C9458070C9458070C9458070C945807B4
:100050000C9458070C9458070C9458070C945A0E9B
:100060000C9458070C9458070C9458070C94580794
:100070000C9458070C9458070C9458070C94580784
:100080000C94A40E0C9458070C9458070C94580721
:100090000C9458070C9458070C9458070C94580764
:1000A0000C9458070C9458070C945807F0F89C8E41
:1000B0008783878E9CF8F00000FEFF030303030391
:1000C000070EFCF80000FEFF0303030303070EFC0A
:1000D000F80000FFFF00000000000000FFFF00002C
:1000E000FEFF8383838383C7EE7C380000F8FC0E19
:1000F00007030303070EFCF800003F7FE0C0808089
:10010000C0E07F3FFFFF01010101010101FFFF008E
:1001100000FFFF0C0C0C0C1C3E77E3C100007FFFBE
:10012000C0C0C0C0C0E0703F1F00001F3F70E0C0F3
:10013000C0C0E0703F1F00007FFFC1C1C1C1C1E36B
:10014000773E1C00001F3F70E0C0C0C0E0703F1F42
:10015000000000000001FFFF01000000D5F08D1439
:10016000A1C881CFD9F1AF200000000000003E5BA4
:100170004F5B3E3E6B4F6B3E1C3E7C3E1C183C7EF4
:100180003C181C577D571C1C5E7F5E1C00183C18D9
:1001900000FFE7C3E7FF0018241800FFE7DBE7FFD5
:1001A00030483A060E2629792926407F0505074062
:1001B0007F05253F5A3CE73C5A7F3E1C1C08081C23
:1001C0001C3E7F14227F22145F5F005F5F06097F61
:1001D000017F006689956A606060606094A2FFA2FA
:1001E0009408047E040810207E201008082A1C08A9
:1001F000081C2A08081E101010100C1E0C1E0C30B3
:10020000383E3830060E3E0E0600000000000000AA
:100210005F00000007000700147F147F14242A7F6A
:100220002A12231308646236495620500008070337
:1002300000001C2241000041221C002A1C7F1C2AB5
:1002400008083E0808008070300008080808080008
:100250000060600020100804023E5149453E004203
:100260007F400072494949462141494D33181412D3
:100270007F1027454545393C4A49493141211109FB
:10028000073649494936464949291E0000140000ED
:100290000040340000000814224114141414140007
:1002A0004122140802015909063E415D594E7C1253
:1002B00011127C7F494949363E414141227F4141EB
:1002C000413E7F494949417F090909013E41415168
:1002D000737F0808087F00417F41002040413F01B3
:1002E0007F081422417F404040407F021C027F7FF4
:1002F0000408107F3E4141413E7F090909063E4105
:1003000051215E7F09192946264949493203017F57
:1003100001033F4040403F1F2040201F3F403840E6
:100320003F631408146303047804036159494D437F
:10033000007F4141410204081020004141417F04F7
:1003400002010204404040404000030708002054DE
:100350005478407F2844443838444444283844443E
:10036000287F385454541800087E090218A4A49C0D
:10037000787F0804047800447D40002040403D0020
:100380007F1028440000417F40007C047804787C82
:10039000080404783844444438FC182424181824E9
:1003A0002418FC7C08040408485454542404043FD2
:1003B00044243C4040207C1C2040201C3C403040D9
:1003C0003C44281028444C9090907C4464544C4405
:1003D00000083641000000770000004136080002A6
:1003E000010204023C2623263C1EA1A161123A40D0
:1003F00040207A3854545559215555794121545447
:100400007841215554784020545579400C1E527241
:10041000123955555559395454545939555454581D
:100420000000457C410002457D420001457C40F0D2
:10043000292429F0F0282528F07C54554500205423
:10044000547C547C0A097F49324949493232484830
:100450004832324A4848303A4141217A3A424020B3
:1004600078009DA0A07D39444444393D4040403D42
:100470003C24FF2424487E4943662B2FFC2F2BFF6E
:100480000929F620C0887E090320545479410000D0
:10049000447D413048484A32384040227A007A0A46
:1004A0000A727D0D19317D2629292F28262929290F
:1004B0002630484D40203808080808080808083841
:1004C0002F10C8ACBA2F102834FA00007B000008A7
:1004D000142A142222142A14089500220095AA0036
:1004E0005500AAAA55AA55AA000000FF0010101036
:1004F000FF00141414FF001010FF00FF1010F01084
:10050000F0141414FC001414F700FF0000FF00FFA7
:100510001414F404FC141417101F10101F101F14CF
:1005200014141F00101010F0000000001F10101015
:10053000101F10101010F010000000FF101010100D
:100540001010101010FF10000000FF140000FF003A
:10055000FF00001F10170000FC04F41414171017FC
:100560001414F404F40000FF00F714141414141409
:1005700014F700F7141414171410101F101F14147C
:1005800014F4141010F010F000001F101F000000F1
:100590001F14000000FC140000F010F01010FF10F9
:1005A000FF141414FF141010101F00000000F010AE
:1005B000FFFFFFFFFFF0F0F0F0F0FFFFFF00000093
:1005C0000000FFFF0F0F0F0F0F38444438447C2A00
:1005D0002A3E147E02020606027E027E026355490E
:1005E00041633844443C04407E201E2006027E02C3
:1005F0000299A5E7A5991C2A492A1C4C7201724C44
:10060000304A4D4D303048784830BC625A463D3E05
:10061000494949007E0101017E2A2A2A2A2A4444A6
:100620005F444440514A444040444A51400000FF26
:100630000103E080FF000008086B6B0836123624C7
:1006400036060F090F0600001818000000101000F1
:100650003040FF0101001F01011E00191D1712008B
:100660003C3C3C3C0000000000080B000202020081
:100670000009040000010202000005240010010529
:100680002401010104240206052406000107058156
:100690000310004009040100020A000000070502DF
:1006A0000240000007058302400000040309041211
:1006B000010002EF02014041233600000101020364
:1006C0000141726475696E6F204C4C430041726445
:1006D00075626F790053636F7265626F6172640057
:1006E0000A0A0A00506C6179657220313A20000ACA
:1006F00000506C6179657220323A20000A00506C1B
:100700006179657220333A200047616D65204F762C
:10071000657200596F75722073636F72652069731B
:100720003A20000808A351A651A156A1537EDFB379
:10073000DFBFD3BF7E7EC1ADC1A1CDA17E8040FF12
:10074000FFFF3F1F0F0707070707070707070707F1
:100750000707070707070707070707070707070729
:100760000707070707070707070707070707070719
:100770000707070707070707070707070707070709
:1007800007070707070707070707070707070707F9
:1007900007070707070707070707070707070707E9
:1007A00007070707070707070707070707070707D9
:1007B0000707070707070707070F1F3FFFFFFFFF91
:1007C000FFFF00000000000000000000000000002B
:1007D000000000000000000000000000FFFF030315
:1007E00003030307061EFCF0000000F0F060303049
:1007F000300000000000000000000000000000FFCA
:10080000FFC3C3C3C3E7FE3C0000000080E06030CC
:1008100030303060E0800010F0E08000000080E0C8
:100820007010000000000000000000000000000048
:10083000000000000000000000000000FFFFFFFFBC
:10084000FFFF0000000000000000000000000000AA
:100850000000000000000000000000007F7F6060DA
:1008600060606070303C1F070000007F7F00000068
:100870000000606000000000000000000000007F39
:100880007F6060606060713F1E0000000F3F30605D
:10089000606060303F0F000000030FFEF03E0F036A
:1008A0000000000000000000000000000000000048
:1008B000000000000000000000000000FFFFFFFF3C
:1008C000FFFF00000000000000000000000000002A
:1008D0000000000000000000000000000000000018
:1008E0000000000000000000000000000000000008
:1008F00000000000000000000000000000000000F8
:1009000000000000000000000000000000000000E7
:1009100000000000000000000606070301000000C0
:1009200000000000000000000000000000000000C7
:10093000000000000000000000000000FFFFFFFFBB
:10094000FFFF0000000000000000000000000000A9
:100950000000000000000000000000000080808017
:100960008080800000000000000000000000000007
:1009700000000000000000000000003010601010B7
:1009800060103000000000000000000000000000C7
:1009900000000000000000000000008080808080D7
:1009A00080000000000000000000000000000000C7
:1009B000000000000000000000000000FFFFFFFF3B
:1009C000FFFF000000000000000000000000000029
:1009D0000000000000000000000000003F605660C2
:1009E0005066503F000000000000000000000000C2
:1009F00000000000000000000000000A050A050ACF
:100A0000050A0500000000000000000000000000D2
:100A1000000000000000000000003F6F596F5F6998
:100A20005F3F000000000000000000000000000028
:100A3000000000000000000000000000FFFFFFFFBA
:100A4000FFFFF0E0C0808080808080808080808098
:100A50008080808080808080808080808080808096
:100A60008080808080808080808080808080000086
:100A70000000000000000000000000000000000076
:100A80000000000000000000000000000000000066
:100A90008080808080808080808080808080808056
:100AA0008080808080808080808080808080808046
:100AB000808080808080808080C0E0F0FFFFFFFF2A
:100AC000FFFFD9B6B6B6CDFFC7BBBBBBFFC7BBBB2D
:100AD000BBC7FF83FBFBFFFFC7ABABABA7FFBBFFF6
:100AE000FFFFFFFFFFFFFF80B6B6B6C9FFFF7F3EE7
:100AF0001C000000000000000000000000000000DA
:100B0000000000000000000000000000001C3E7F0C
:100B1000FFFFFFFFFFFF80F6F6F6F9FF80FF9FABB8
:100B2000ABAB87FF734F3FCFF3FFBBFFFFFFFFFF71
:100B3000FFFFFFBFC7E9EEE9C7BFFFFFFFFFFF539E
:100B4000636F72653A200008087ED5ABD5ABD5AB94
:100B50007E7EFFFFFFFFFFFF7E7E8181818181819D
:100B60007E400800007E404040007A000C3040305B
:100B70000C0038545458005854542400000000000D
:100B80000C1E3F7EFC7E3F1E0C00000C1E3F7EFCB8
:100B90007E3F1E0C00000C1E3F7EFC7E3F1E0C00A4
:100BA000000000400800007E404040007A000C3009
:100BB00040300C003854545800585454240000005D
:100BC00000000C1E3F7EFC7E3F1E0C00000C1E3FF2
:100BD0007EFC7E3F1E0C00000000000000000000B4
:100BE0000000000000400800007E404040007A0005
:100BF0000C3040300C0038545458005854542400E1
:100C0000000000000C1E3F7EFC7E3F1E0C0000001A
:100C100000000000000000000000000000000000D4
:100C2000000000000000004900D90100001A00493E
:100C300000D90100001A004900EC0000000D006E10
:100C400000A20400003F006E00D90100001A00520B
:100C500000C702000026005700EC0000000D005203
:100C600000D90100001A0049008F05000040026E03
:100C700000D90100001A008300D90100001A009376
:100C800000B403000033008300D90100001A006E95
:100C900000D90100001A007B00D90100001A00628F
:100CA00000D90100001A006E008F05000034049383
:100CB00000D90100001A009300B403000033009330
:100CC00000D90100001A008300B403000033006E55
:100CD00000D90100001A006E00D90100001A00625C
:100CE00000D90100001A005700D90100001A005273
:100CF000008F05000028064900D90100001A00579E
:100D000000D90100001A006E00D90100001A00622B
:100D100000B403000033005700D90100001A00524C
:100D200000D90100001A004900D90100001A004151
:100D300000D90100001A0049008F0500002806496B
:100D400000D90100001A004900D90100001A004929
:100D500000D90100001A006E00D90100001A006ECF
:100D600000D90100001A006E00D90100001A0052DB
:100D700000C702000026005700EC0000000D0052E2
:100D800000D90100001A0049008F05000040026EE2
:100D900000D90100001A008300D90100001A009355
:100DA00000B403000033008300D90100001A006E74
:100DB00000D90100001A007B00D90100001A00626E
:100DC00000D90100001A006E008F05000034049362
:100DD00000D90100001A009300B40300003300930F
:100DE00000D90100001A008300B403000033006E34
:100DF00000D90100001A006E00F20100000100623B
:100E000000D90100001A005700D90100001A005251
:100E1000008F05000028064900B403000033006E6F
:100E200000D90100001A006200B40300003300572B
:100E300000D90100001A005200D90100001A00492F
:100E400000D90100001A004100D90100001A004930
:100E5000008F050000280657008F0501800046130B
:100E600011241FBECFEFDAE0DEBFCDBF11E0A0E05E
:100E7000B1E0E0E9F5E302C005900D92A235B107BB
:100E8000D9F726E0A2E5B1E001C01D92A135B20775
:100E9000E1F717E0C0E3D7E004C02197FE010E940C
:100EA000C01ACF32D107C9F70E9473130C94C61A27
:100EB0000C94000080915C010895EAE8F1E0A0E064
:100EC000B8E000800EBC8111012C1197A0FDFDCF70
:100ED0000192B9F70DB40895FC018091890188232E
:100EE00011F13FB7F89482E08093E9002091F2007D
:100EF000822F90E01816190614F481E090E0882300
:100F000039F0289844E6409388014091F1004083ED
:100F1000222339F02091F200211103C02BE6209307
:100F2000E8003FBF08958FEF9FEF08952FB7F89423
:100F300083E08093E9009091E800892F807295FF0B
:100F400004C09091F20080E4891B2FBF0895809126
:100F5000800181110DC082E080937C0184E0809348
:100F60007D0110927F0110927E0181E080938001CB
:100F70008CE791E00895CF93DF931F92CDB7DEB752
:100F80006983DC01ED91FC910280F381E02D41E069
:100F900050E0BE016F5F7F4F09950F90DF91CF91B9
:100FA000089583E08093E9008091F200882319F08E
:100FB0008AE38093E80008950E94960790E00895E0
:100FC000CF93DF931F92CDB7DEB7FC018485958563
:100FD00097FD08C02FEF3FEF358724870F90DF91F3
:100FE000CF910895CE0101960E946C07019719F4E4
:100FF000898190E0F3CF8FEF9FEFF0CF0F931F9396
:10100000CF93DF931F92CDB7DEB78C01FC018485AF
:10101000958597FF0BC0CE0101960E946C07019742
:1010200071F4898190E0F80195878487F8018485BF
:1010300095850F90DF91CF911F910F9108958FEFBC
:101040009FEFF1CFFC018485958597FD0BC09FB77D
:10105000F89482E08093E9008091F2009FBF90E0D5
:10106000019608959FB7F89482E08093E9008091FB
:10107000F2009FBF90E00895409176015091770172
:10108000209174013091750142175307B4F4909187
:10109000E8009570E1F39091E80092FD19C080930B
:1010A000F100809176019091770101968F739927D5
:1010B000892B19F48EEF8093E8008091760190914E
:1010C00077010196909377018093760181E00895EE
:1010D00080E00895DF92EF92FF920F931F93CF93DA
:1010E000DF93D82E8A01EB017B01E40EF51ECE15AD
:1010F000DF0559F0D7FE12C0FE0184910E943C0822
:1011000021968111F4CF0FEF1FEFC801DF91CF912E
:101110001F910F91FF90EF90DF9008958881EECF9F
:101120000F931F93CF93DF931F92CDB7DEB782E06B
:10113000898342E450E069E676E080E80E946A082C
:101140000E94A707DC0112960D911C910115110553
:1011500089F0D801ED91FC910280F381E02DBE0170
:101160006F5F7F4FC801099597FD04C0F8010085A6
:101170001185ECCF89810F90DF91CF911F910F9155
:101180000895615030F02091F100FC012083019618
:10119000F8CF289884E68093880108953FB7F894A3
:1011A0008091700190917101A0917201B0917301D1
:1011B00026B5A89B05C02F3F19F00196A11DB11DB2
:1011C0003FBFBA2FA92F982F8827BC01CD01620FEE
:1011D000711D811D911D42E0660F771F881F991FA9
:1011E0004A95D1F708958F929F92AF92BF92CF9276
:1011F000DF92EF92FF926B017C010E94CE084B01BF
:101200005C01C114D104E104F104B9F00E94CE08DC
:10121000681979098A099B09683E7340810591051F
:1012200080F321E0C21AD108E108F10888EE880EA7
:1012300083E0981EA11CB11CE4CFFF90EF90DF90DB
:10124000CF90BF90AF909F908F9008958F929F9274
:10125000AF92BF92CF92DF92EF92FF920F931F93C4
:10126000CF93DF936C017B018A0180910D0188236C
:1012700009F45CC080918901882309F457C08091EA
:101280007B0180FF05C08091E00082608093E000D8
:10129000E801B12C8AEFA82E93E0892E2AE3922E42
:1012A000209711F4BB20D9F10E94960781110AC042
:1012B000AA94AA20D9F161E070E080E090E00E9459
:1012C000F308EECF8C171D0611F00CF08C2F9FB792
:1012D000F8948092E9002091E80025FD02C09FBFAC
:1012E000DFCF282F30E0C21BD30BF701815020F055
:1012F00041914093F100FACFE20EF31EBB2021F0A2
:101300009092E800B12CEBCF8091E80085FDE7CF0B
:101310009092E800BB24B394209709F3F3CF5D9833
:1013200084E680937A01101611063CF081E090E08B
:10133000F6019383828310E000E0C801DF91CF9132
:101340001F910F91FF90EF90DF90CF90BF90AF90E3
:101350009F908F900895AF92BF92CF92DF92EF92BD
:10136000FF920F931F93CF93DF936C017B018B014F
:10137000040F151FEB015E01AE18BF08C017D1079F
:1013800059F06991D601ED91FC910190F081E02D29
:10139000C6010995892B79F7C501DF91CF911F917E
:1013A0000F91FF90EF90DF90CF90BF90AF90089596
:1013B00020916401E0916201F0916301CF010296F6
:1013C0009093630180936201222319F08591949197
:1013D0000895808191810895CF92DF92EF92FF92DC
:1013E000CF93DF930E94D809811520E8920791F4EA
:1013F000809171008D7F80937100109291004698CA
:10140000479810926101DF91CF91FF90EF90DF90AC
:10141000CF90089521E020936101813020E8920768
:1014200051F480915F0190916001909363018093EA
:1014300062010E94D80997FD05C020915E01222318
:1014400009F454C020915D01211150C021E0209386
:101450006501EC01DF77209709F04BC081E08093B4
:10146000660146983FE9C32E3FE0D32EE12CF12CD4
:10147000CAEFD0E0E091E805F091E9050995811106
:1014800003C081E08093660180916501882329F083
:1014900080916601882309F43FC047980E94D809CB
:1014A0000097F1F19C01DE010E946319DC01CB0180
:1014B00029E0B595A795979587952A95D1F710922C
:1014C00090002AE020939100D0929900C092980059
:1014D0008093670190936801A0936901B0936A01BA
:1014E000809171008260809371008DCF10926501B0
:1014F000B0CF9E0150E040E060E472E48FE090E005
:101500000E94631A69017A0181E0C81AD108E108D2
:10151000F10810926601AECF4699BFCF479ABECF71
:101520008FEF9FEFDC01CBCF2D9A0895BC0190E0A7
:1015300080E00C94F3088FB18095807F669B886073
:101540001C9B8460089510925C013E983F9808951A
:101550003E9A3F9A81E080935C0108952F923F92DA
:101560004F925F926F927F928F929F92AF92BF92B3
:10157000CF92DF92EF92FF920F931F93CF93DF935F
:1015800000D01F92CDB7DEB76D30D1F020910101B0
:101590002983C0905801D0905901822F90E06A3081
:1015A00039F510925B0110925A0143E0880F991FA0
:1015B0004A95E1F7C80ED91ED0925901C092580140
:1015C00081E090E00F900F900F90DF91CF911F91ED
:1015D0000F91FF90EF90DF90CF90BF90AF909F90D2
:1015E0008F907F906F905F904F903F902F900895D5
:1015F00020915A0130915B013B832A8335E0639F40
:10160000F0011124E759FE4F0A811B8140E030E1CF
:10161000832E912C453029F09F012F5F3F4F9490EE
:10162000F901560128E0722E592D5170552EB8013E
:10163000662E262F201B3981231760F5F12CE12C13
:101640005981E51620F560387105D0F495012E0D0D
:101650003F1D20343105A0F451E021FD54E020FD70
:10166000550F22FD5295287F829ED0011124A60D90
:10167000452EA657BE4F2C91552031F0252B2C938B
:10168000AFEFEA1AFA0ADCCF40942421F8CF6F5F5B
:101690007F4FCECF96947A94A80EB91E7110C4CF06
:1016A0004F5F080F191F463009F0B3CF2A813B81E5
:1016B0005981549F200D311D112430935B012093DB
:1016C0005A017ECF80E00C945D07089590E080E0A1
:1016D00008958F929F92AF92BF920F931F93CF93D3
:1016E000DF93CDB7DEB7A1970FB6F894DEBF0FBE7C
:1016F000CDBF19A2423008F44AE08E010F5D1F4FA2
:10170000842E912CB12CA12CA50194010E948A1A3F
:10171000E62FB901CA01EA3044F5E05DD801EE9345
:101720008D01232B242B252B79F790E080E0109757
:1017300069F0FD0101900020E9F73197AF014A1BE4
:101740005B0BBD018AEE95E00E94AB09A1960FB636
:10175000F894DEBF0FBECDBFDF91CF911F910F91E7
:10176000BF90AF909F908F900895E95CD7CF0C9475
:101770002B1A1F920F920FB60F9211248F939F93E3
:101780008091E1009091E100937F9093E10083FFCD
:101790000FC01092E90091E09093EB001092EC00E2
:1017A00092E39093ED001092890198E09093F000FD
:1017B00082FF22C093E09093E9009091F200992378
:1017C00019F09AE39093E80090917A01992341F0FF
:1017D00090917A01915090937A01911101C05D9A94
:1017E00090918801992341F09091880191509093B4
:1017F0008801911101C0289A84FF18C08091E200ED
:101800008E7E81608093E2008091E1008F7E8093E4
:10181000E10080917B018E7E806180937B019F91AE
:101820008F910F900FBE0F901F90189580FFF7CFEC
:101830008091E2008E7E80618093E2008091E100E1
:101840008E7E8093E10080917B018E7E8160E5CF6A
:101850001F920F920FB60F921124CF92DF92EF9248
:10186000FF920F931F932F933F934F935F936F9329
:101870007F938F939F93AF93BF93EF93FF93CF93F8
:10188000DF93CDB7DEB76C97DEBFCDBF1092E90016
:101890008091E80083FF25C068E0CE0145960E9454
:1018A000C10882EF8093E8008D8987FF39C090914D
:1018B000E80090FFFCCF982F907609F034C19E8904
:1018C0004F89588D2F89F88C911131C0803861F57E
:1018D000809179018093F1001092F1008EEF809356
:1018E000E8006C960FB6F894DEBF0FBECDBFDF9157
:1018F000CF91FF91EF91BF91AF919F918F917F9188
:101900006F915F914F913F912F911F910F91FF9098
:10191000EF90DF90CF900F900FBE0F901F90189513
:101920009EEF9093E800C7CF1092F100D5CF913091
:1019300059F48111D3CF4130510581F6809179015D
:101940008D7F80937901CACF933049F48111C6CF3E
:101950004130510519F6809179018260F2CF9530BE
:1019600041F48091E80080FFFCCF20682093E300E1
:10197000B5CF963009F0A9C00B8D1C8D22E01092D6
:10198000E9001092770110927601F2122EC01092A7
:101990007501109274010E9490081F8299E099834A
:1019A000FA8291E09E8390EA98879AEF9987209136
:1019B000760130917701275F3F4F3C832B838D83E6
:1019C0001092E90010927701109276011093750140
:1019D0000093740149E050E0BE016F5F7F4F80E0EB
:1019E0000E946A080E94900879CF109375010093B5
:1019F00074010E94A707DC0112960D911C9101153C
:101A0000110509F451C1D801ED91FC910480F581D3
:101A1000E02DBE016B5E7F4FC8010995009709F06C
:101A20003EC1F80100851185EACFF3E0FF120EC038
:101A30008F89882309F440C0823061F440E867E070
:101A40008DEC96E00E941313811148CF81E28093C0
:101A5000EB0047CF813029F440E86BE081EC96E061
:101A6000F1CF833099F70E94A707DC011296ED9021
:101A7000FC908E010F5F1F4F6801E114F10479F0B3
:101A8000D701ED91FC910680F781E02DB801C701E7
:101A90000995080F111DF701E084F184EECFD801FC
:101AA0001C92F60101900020E9F73197BF016C19F3
:101AB0007D0940E0C601C6CF6BEA76E0FB014491A8
:101AC00050E080E80E946A0809CF973009F4BECF41
:101AD000983021F481E08093F10000CF993009F033
:101AE000FDCE837009F0B2CFEEE2F1E081E031E0AB
:101AF00096E32191222371F08093E9003093EB006B
:101B0000DF0111972C912093EC009093ED008F5FF3
:101B1000873079F78EE78093EA001092EA008F8988
:101B200080938901DBCE8B8D9C8D1092E900109201
:101B30007701109276019093750180937401898DDD
:101B4000811192C08E899D89913A49F4813209F0C0
:101B50007DCF47E050E066E071E080E0B3CF9132A6
:101B600009F074CF833269F48F89988DB0E0A0E0DA
:101B70008093020190930301A0930401B0930501A7
:101B8000ADCE803269F48091E80082FFFCCF67E03F
:101B900086E091E00E94C1088BEF8093E8009ECE22
:101BA000823209F09BCE8F8980930D01EEEFFFE723
:101BB000859194918B3F9C4D51F1E0E0F8E080914C
:101BC000060190910701A0910801B0910901803BA5
:101BD0009440A105B105F1F480910D0180FD1AC07A
:101BE000EE3F8AE0F80789F587E797E791838083DE
:101BF000809160008093780188E19BE00FB6F894B3
:101C0000A895809360000FBE9093600067CEEEEFC2
:101C1000FAE0D5CF808191818737974709F05ECE72
:101C2000A895809160008861809360008091780120
:101C300080936000EE3F2AE0F20789F08091FE0A6F
:101C40009091FF0A9183808349CE8081918187376B
:101C5000980751F29093FF0A8093FE0AC5CF109225
:101C6000FF0A1092FE0A3ACE0E94A707DC011296E4
:101C70000D911C910115110509F4E8CED801ED91E3
:101C8000FC910190F081E02DBE016B5E7F4FC80199
:101C90000995811123CEF80100851185EBCF181627
:101CA00019060CF41BCED2CEF1E0FF12BECE6FEAC5
:101CB00076E004CF1F920F920FB60F9211242F934C
:101CC0003F938F939F93AF93BF9380916C019091BB
:101CD0006D01A0916E01B0916F0130916B0123E015
:101CE000230F2D3758F50196A11DB11D20936B01CF
:101CF00080936C0190936D01A0936E01B0936F017E
:101D00008091700190917101A0917201B091730165
:101D10000196A11DB11D8093700190937101A09354
:101D20007201B0937301BF91AF919F918F913F91D9
:101D30002F910F900FBE0F901F90189526E8230F3C
:101D40000296A11DB11DD2CF1F920F920FB60F9216
:101D500011242F933F934F935F936F937F938F93B0
:101D60009F93AF93BF93EF93FF93809167019091FF
:101D70006801A0916901B0916A01892B8A2B8B2B94
:101D800009F440C08091660181110BC088B190E4D4
:101D9000892788B980916501882319F088B1805816
:101DA00088B98091670190916801A0916901B09113
:101DB0006A01181619061A061B069CF48091670121
:101DC00090916801A0916901B0916A010197A10900
:101DD000B1098093670190936801A0936901B09362
:101DE0006A01FF91EF91BF91AF919F918F917F9188
:101DF0006F915F914F913F912F910F900FBE0F9078
:101E00001F9018950E94EC09ECCF9C01CB01B90101
:101E10000C94331A9C01CB01B9010C941B1A0C943D
:101E2000431A0C942B1ACF92DF92EF92FF926B0120
:101E30007C01C114D104E104F10441F00E94BE19F7
:101E4000A70196010E94631A6B017C01C701B601CC
:101E5000FF90EF90DF90CF9008958F929F92AF9276
:101E6000BF92CF92DF92EF92FF926B017C01C2167C
:101E7000D306E406F50684F449015A018C189D083E
:101E8000AE08BF080E94BE19A50194010E94631A02
:101E9000C60ED71EE81EF91EC701B601FF90EF90CF
:101EA000DF90CF90BF90AF909F908F9008959C014E
:101EB000E1E7F0E090819D7F908381E08093640171
:101EC00030936301209362013093600120935F019E
:101ED0000C94EC0980915C0181110C94A30A0C9480
:101EE000A80A6F927F928F929F92AF92BF92CF92E9
:101EF000DF92EF92FF920F931F93CF93DF938C01AA
:101F00004115510509F4D4C0FA01D4903196949149
:101F10004E5F5F4FAD2DB0E02223E1F0C1E0D0E095
:101F2000892F877011F4D0E0C0E0E92FE695E6959F
:101F3000E695EC0FFD2FF11DEA9FE001EB9FD00D20
:101F4000FA9FD00D11242C9FF0012D9FF00D11242C
:101F50004E0F5F1F7D01E00EF11E1E141F040CF0DA
:101F6000A7C0003811050CF0A3C09B01290F311D3B
:101F7000121613060CF09CC0603471050CF098C06A
:101F80004115510509F494C0D62FD7709B0177FFF6
:101F900002C0295F3F4F83E0359527958A95E1F789
:101FA000F22F77FF04C0DD2311F0FFEFF20F22279D
:101FB0003327201B310B17FD02C030E020E0C0E8C2
:101FC000C01B60E8E616F1040CF4CD2DC21B6F2F88
:101FD0000F2E000C770BF62EF094FF3F0CF0F12C37
:101FE000E1E0892F877009F4E0E096959695969543
:101FF0009E0F690F711D6930710514F098E09F1BE9
:102000009F2C9F0E792D60E8760350011124B501B5
:10201000600F711F620F731FDF9C200D311D112493
:10202000420F531FED2E0D2E000CFF082FEF30E056
:102030000D2E02C0220F331F0A94E2F7209530952F
:10204000832E9F0F9915A1F18B0106571E4FD12C9E
:10205000C12CCC1638F5FA01EC0DFD1DE491F0E031
:102060003F010E2C02C0660C771C0A94E2F797FC25
:1020700005C0F8018081822386298083DD2361F0F9
:10208000F6E0F9154CF0580180E8A80EB11CF501F6
:102090008081882187298083FFEFCF1ADF0A0F5FB5
:1020A0001F4FD7CF93944A0F5B1F60587F4FCACF03
:1020B000DF91CF911F910F91FF90EF90DF90CF9024
:1020C000BF90AF909F908F907F906F9008958111F7
:1020D00001C081E0809301010895682F70E088EECF
:1020E00093E00E94AC1A60930001089590935B0105
:1020F00080935A0170935901609358010895AB0180
:10210000672B29F4682F8AEE95E00C94AE0ABC0187
:1021100090E080E00C94690BCF92DF92EF92FF92F7
:10212000CF93DF936115710559F4682F8AEE95E01E
:10213000DF91CF91FF90EF90DF90CF900C94AE0A9B
:102140006C01990FEE08FF086A307105E1F44AE06E
:10215000F7FE1AC06DE28AEE95E00E94AE0AEC012D
:1021600066277727CB016C197D098E099F094AE004
:102170000E94690B8C0F9D1FDF91CF91FF90EF9014
:10218000DF90CF900895462FC701B601DF91CF9120
:10219000FF90EF90DF90CF900C94690B0F931F93FB
:1021A000CF93DF938C01D0E0C0E0F801EC0FFD1F6E
:1021B0006491662341F08AEE95E00E94AE0A892B75
:1021C00011F02196F2CFCE01DF91CF911F910F91A7
:1021D0000895CF93C82F0E949B0A9C2F982381E0DB
:1021E0009C1380E0CF910895809157018093560110
:1021F0000E949B0A8093570108958FB7F8944091ED
:102200006C0150916D0160916E0170916F018FBFF3
:1022100080915401882321F01092540180E00895A8
:1022200090915501242F291B922F20910001921784
:1022300040F49F5F9217A0F491E093BF889513BE7E
:10224000089581E08093540140935501809152019B
:10225000909153010196909353018093520181E034
:10226000089590915601982329F49091570198234D
:1022700081E009F480E00895682F70E080915201B8
:10228000909153010E9444199C0181E0232B09F095
:1022900080E008950C94620B80E0EAE8F1E081119F
:1022A0008FEF002481938193819381930394D1F7DD
:1022B000109259011092580110925B0110925A012C
:1022C00008952F923F925F926F927F928F929F928A
:1022D000AF92BF92CF92DF92EF92FF920F931F9334
:1022E000CF93DF9381EC80937C0085B1806F85B9BB
:1022F00084B1877E84B984B1876E84B95E9A5F9811
:102300008AB1806D8AB9769A6E9881B3806F81BBED
:10231000899880B38D7080BB80E58CBD81E08DBDD8
:1023200085E090E00E94960A5F9A85E090E00E9426
:10233000960A5E985C98ECE5F1E084918EBD000011
:102340000DB407FEFDCF319641E0E936F407A9F759
:102350005C9A81E88093640080916500816080933D
:1023600065000E94620B0E949B0A87FF15C05C9863
:1023700085EA8EBD00000DB407FEFDCF5C9A2E9855
:102380002F982D988091640080628093640081E092
:1023900083BF889513BEFCCF0E949B0A82FF48C072
:1023A0002D980E949B0A84788438E1F40E94940A54
:1023B00088EC90E00E94960A2F9882E090E00E94BC
:1023C0002B1A8F3F29F06FEF82E090E00E94551AA0
:1023D00084EF91E00E94960A2F9A0E949B0A8478CB
:1023E0008438D9F30E949B0A84718431E1F40E94FD
:1023F000940A88EC90E00E94960A2E9882E090E081
:102400000E942B1A882329F060E082E090E00E946D
:10241000551A84EF91E00E94960A2E9A0E949B0A18
:1024200084718431D9F388EC90E00E94960AB4CF8D
:102430000E94940A82E090E00E94B70B882399F1F1
:102440000E94A80A81E090E00E94B70B81FF11C0B2
:10245000582F5470552E82FD2E98C1EFDFEF08E003
:1024600010E00E949B0A86FF21C02E9A2F9A0E949C
:10247000940A82E390E00E94960A0E949B0A8111CE
:10248000F8CFDF91CF911F910F91FF90EF90DF90E8
:10249000CF90BF90AF909F908F907F906F905F9004
:1024A0003F902F9008950E94A30ACCCF552029F089
:1024B000C430D10511F42E9A2F9881E00E945D0757
:1024C0009E01D7FF04C0222733272C1B3D0B27700A
:1024D0003327CE01D7FD079653E0959587955A95FA
:1024E000E1F7D7FF05C00197F801E21BF30B9F014D
:1024F000BC017695762F66277795679566577E4F50
:10250000B0E0A0E03801621A730A8E3FFFEF9F0728
:1025100009F43BC07B0150E040E0FD01E455FF4F72
:102520005F014B01F0E88F0E911C8F3F980779F007
:10253000F501E40FF51FE491F0E06F01022E01C0F8
:10254000CC0C0A94EAF7F701D488CD28C48A211567
:10255000310599F0F501E40FF51FE4916401C40E13
:10256000D51EF0E01F01062C02C0359427940A9472
:10257000E2F7F60134882328248A4F5F5F4FFFEF8C
:10258000EF1AFF0A4835510581F60196A85ABF4F48
:1025900060587F4FA03BB10509F0B7CF0E94620B96
:1025A0008FE090E00E94960A2196C931D10509F08A
:1025B00058CF552011F02F9A2D9880E991E00E9474
:1025C000960A0E94940A81E090E00E94B70B80FF77
:1025D00050CF8AE090E00E94B70B9FEF980F9E3F8C
:1025E00008F047CF22E330E030935B0120935A019B
:1025F00028E330E03093590120935801CBE0D0E03C
:10260000682F8AEE95E00E94AE0ACE010E94B70BB9
:102610002196C131D105A1F70E94620B88EE93E0AB
:102620000E94960A26CFEF92FF920F931F93CF93AB
:10263000DF93F82E192FE62E042F81E0860F880FE6
:102640000E943C0883E00E943C08CF2DD12FEC0E65
:10265000FD2EF11CCE15DF05B9F007FF13C0FE01FA
:1026600084910E943C08182F80E00E943C0881233E
:1026700021968111EFCFDF91CF911F910F91FF90A4
:10268000EF9008958881EDCF81E0F5CFEAE8F5E09D
:102690001382128288EE93E0A0E0B0E084839583F9
:1026A000A683B78388E391E0918380838FEF9FEFC8
:1026B00095878487EAEEF5E0138212828AE491E03E
:1026C000918380838AE597E09093E9058093E805FC
:1026D00080E090E89093E7058093E60546983E9A5F
:1026E00047983F9A0895789484B5826084BD84B5F4
:1026F000816084BD85B5826085BD85B5816085BDFD
:1027000080916E00816080936E00109281008091B4
:10271000810082608093810080918100816080933C
:102720008100809180008160809380008091910081
:1027300082608093910080919100816080939100EC
:10274000809190008160809390008091C1008460AE
:102750008093C1008091C10082608093C10080910C
:10276000C10081608093C1008091C300816080932B
:10277000C3008091C00082608093C0008091C2003D
:1027800081608093C20080917A00846080937A0097
:1027900080917A00826080937A0080917A008160D3
:1027A00080937A0080917A00806880937A001092FA
:1027B00089011092790110927B018091D70081608C
:1027C0008093D70080EA8093D80089B5806189BD65
:1027D00089B5826089BD09B400FEFDCF61E070E07B
:1027E00080E090E00E94F3088091D8008F7C8061A7
:1027F0008093D8008091E000807F8093E0008091FA
:10280000E1008E7E8093E1008DE08093E200559A96
:10281000209A0E942714C0E0D0E00E945414209710
:10282000E1F30E940000F9CF8AED90E06EEE75E0D2
:1028300046E050E00E94050F08956AE070E00E94B3
:102840008C1008956AE070E00E947F1008951F9335
:102850000E94611188ED90E00E94110F182F89ED00
:1028600090E00E94110F1A3511F4843461F088ED64
:1028700090E06AE50E940F0F89ED90E064E40E9409
:102880000F0F0E9414148AED90E06EEE75E046E0A2
:1028900050E00E940A0F8CE30E946D1087E29CE0DA
:1028A0000E94570F1F9108956F927F928F929F926F
:1028B000AF92BF92CF92DF92EF92FF920F931F934E
:1028C000CF93DF93CDB7DEB72C970FB6F894DEBF6A
:1028D0000FBECDBF0E94FD10803009F45FC30E947F
:1028E0004C110E94F41080911501803009F449C008
:1028F00099278130910500E011E009F463C082302E
:10290000910509F476C18330910509F0B7C182E0E1
:102910000E94671060E070E0CB010E94761085EDA8
:1029200096E00E94CE1081E00E94671080EE96E053
:102930000E94CE1084EE96E00E94CE108091EE05AB
:102940009091EF050E9422148FEE96E00E94CE1027
:1029500081EF96E00E94CE108091F0059091F105F4
:102960000E9422148CEF96E00E94CE108EEF96E02B
:102970000E94CE108091F2059091F3050E942214DE
:102980006EC160E070E04DE357E0CB01212D0E9465
:10299000710F88E00E943111803019F081E080933E
:1029A000150184E00E943111803019F083E080939A
:1029B000150180E10E943111803009F4EDC20E94BE
:1029C0006A0FEAC286E490E060E070E05B010E947A
:1029D000761081E00E9467108FE39BE00E94CE108A
:1029E00080911A0190911B010E941D148091170182
:1029F0008A95833070F49927880F991F895D9E4FBF
:102A0000FC014081518160E070E0CB01212D0E94EA
:102A1000710F80911301803081F020911E0140914F
:102A20001C0150911D016091210170912201809142
:102A30001F01909120010E94710F8091120180303E
:102A4000D1F0809116018395809316018AE00E944F
:102A50003C11803031F081E09091130198279093E0
:102A60001301809116018C3331F4109313010093FC
:102A70001201109216018091F5059091F6052AE059
:102A80009202302D1124829F812D1124830F982FC3
:102A90008827202D3327282B392B29503A4F7901AD
:102AA00087EF95E03C01D301C701A817B90709F4E6
:102AB00002C11C9110304D01B9F0FD01238141810B
:102AC00052816681778184819581880F991F880F53
:102AD000991F880F991F660F771F660F771F660F64
:102AE000771F0E94710FD40101E0103009F4012D0D
:102AF000CD010A963C01809119016D010E943C11A3
:102B0000F601A481B5811030C9F08030B9F0C4015C
:102B10009C0129833A8304961197FC01A083B18319
:102B20008B2F882312F001E009C0E981FA8110821D
:102B3000809117018A9580931701012D0170003053
:102B400009F4B1CF80911201803009F0ACCF8091AF
:102B50002301282F332780911F0190912001280FF6
:102B6000391FAA0FBB1FAA0FBB1FAA0FBB1FA2179B
:102B7000B3070CF098CF18968A179B070CF093CFE9
:102B8000F40186819781880F991F880F991F880FFC
:102B9000991F20912401422F552720912101309126
:102BA0002201420F531F841795070CF07CCF089623
:102BB000281739070CF077CFD401FD01838190915C
:102BC0001E01981769F41C921092140180911A0149
:102BD00090911B01019690931B0180931A0163CF82
:102BE00081E080931201809117018A9580931701EB
:102BF0005ACF82E00E9467106091250170912601F2
:102C00008DE090E00E94761089E097E00E94CE105F
:102C100082E00E943C11E0912501F0912601803074
:102C200041F0EF30F1052CF43196F0932601E0935A
:102C30002501EF30F10599F481E00E9467108DE0E5
:102C400090E063E270E00E94761083E197E00E94DA
:102C5000CE1080911A0190911B010E941D1488E0F2
:102C60000E943111803031F484E00E9431118030B3
:102C700009F492C184E0809315018EC18091F5051D
:102C80009091F6052AE09202302D1124829F412D69
:102C90001124430F542F4427802D9927842B952BE3
:102CA00089509A4FA7EFB5E0A817B90709F43CC1BE
:102CB0001C921A96F9CF80911901880F0E943C113D
:102CC000803009F488C08091F405893008F422C06E
:102CD0008091F5059091F6058030910509F494C135
:102CE00001978C018AE01802902D1124089F212D54
:102CF0001124290F322F2227402D5527422B532BE9
:102D000087EF95E061E076E00E9441191093F605A7
:102D10000093F50563E070E000E010E0C8010E9458
:102D2000130F7B016FE070E020E130E0C801A801E3
:102D30000E942D0F6B0161E070E028E030E0C801D7
:102D4000A8010E942D0F8091F5059091F60589301C
:102D5000910508F053C12AE09202302D1124829F80
:102D6000812D1124830F982F8827A02DBB27A82BF6
:102D7000B92BCD0181509A4F28E038E0FC01208327
:102D80003183CD0183509A4FFC0160837183CD0163
:102D900085509A4FFC01C082D182FD01E650FA4F66
:102DA000E082CD0188509A4F27E43BE0FC0120836C
:102DB0003183A950BA4F81E08C938091F5059091B1
:102DC000F60501969093F6058093F5058091F4053C
:102DD00083958093F40580911701803009F024C019
:102DE000E091EE05F091EF0580911A0190911B01A1
:102DF000E817F90708F0E7C02091F0053091F105D8
:102E00003093F3052093F20540EF55E02EEE35E0C8
:102E1000BF01FA0160837183F901808391830E946D
:102E2000141482E08093150180E80E94E91080303C
:102E300061F08091210190912201883091052CF060
:102E40000197909322018093210180E10E94E91073
:102E5000803061F0809121019091220188339105A9
:102E60002CF40196909322018093210180E20E942C
:102E7000E910803061F080911F0190912001A81627
:102E8000B9062CF401979093200180931F0180E4F0
:102E90000E94E910803061F080911F019091200123
:102EA000883791052CF401969093200180931F019F
:102EB00088E00E943111803049F080911E01839595
:102EC0008330912D0CF4982F90931E0184E00E9482
:102ED0003111803051F080911E018A9592E0282FA7
:102EE00022230AF0982F90931E0100911A0110914D
:102EF0001B0165E070E0C8010E9444190030110513
:102F000009F44AC08030910509F046C0809114014F
:102F1000803009F041C081E0809314018091190153
:102F20008A958093190138C082EE9FEF9093260115
:102F30008093250188E098E09093240180932301F9
:102F400088E090E0909322018093210180E090E05E
:102F50009093200180931F0110921E0123E237E01D
:102F600030931D0120931C0190931B0180931A0143
:102F700021E03CE3309319012093180120E033E075
:102F8000309317012093160190931501809314013B
:102F900010931301009312010E944A112C960FB650
:102FA000F894DEBF0FBECDBFDF91CF911F910F917F
:102FB000FF90EF90DF90CF90BF90AF909F908F9059
:102FC0007F906F90089542EF55E020EF35E06091DB
:102FD000F0057091F105E817F90709F41ACF6817A1
:102FE000790708F416CF2091F2053091F3052817E0
:102FF000390708F016CF22EF35E00ECFCE01039649
:103000000E940C180E94161A0E9408180E94161A94
:103010000E9410180E94161A0E9408180E94161A80
:10302000FFCF2F923F924F925F926F927F928F923B
:103030009F92AF92BF92CF92DF92EF92FF920F9347
:103040001F93DB019C012A1B3B0B24173507F0F46F
:10305000A40FB51FFD01DC01A40FB51F40315105C0
:1030600008F42AC05C019D0121703070C90191955E
:1030700081959109BD016E7F7B016B018F01B701C5
:103080006A177B07E8F462916E93F9CF40315105DE
:1030900008F43AC0BC01617070709C01260F371FA4
:1030A00069018D01FD01DC019601A217B30708F04B
:1030B0002DC021912D93F8CF9D01DF01F90183C02F
:1030C000421B530B9A012E7FF701E21BF30B319544
:1030D00021953109080F191FC80181709070803047
:1030E000910509F035C04801D801BD01D601EA17A4
:1030F000FB0708F062C08D01DB019E918E91BD013E
:10310000D8019E938E93F3CFFC01A2C04C01461BC5
:10311000570B9A012E7FF601E20FF31FD801A60F7D
:10312000B71FCD01817090708030910509F055C0B6
:103130003D01BD01C6018E179F0708F083C0DB016A
:103140008D919D91BD01D6018D939D936D01F2CF1F
:103150003F01B801660F771F660F771F660F771F55
:10316000CB01919581959109887090704801D801A3
:10317000FD01EE7F1F010081118168707070D60122
:10318000F301EA17FB07C8F42D01E82FEA951AF0BE
:10319000000F111FFBCFD101FE90EE901D016701C2
:1031A000E62FEA951AF0D694C794FBCFC02AD12A0D
:1031B000D201DE92CE928701E3CFD401A20FB31FDA
:1031C00041705070C501BF01641B750B6E177F07FE
:1031D00008F046C02E912293F9CFBD01660F771FEC
:1031E000660F771F660F771F8B01119501951109E7
:1031F000087010703D01CD018E7F2F01FC01E08031
:10320000F180F20168707070D601AE17BF07D0F47C
:103210001D01A62FAA951AF0F694E794FBCFFC01A6
:10322000C280D380F2015601A02FAA951AF0AA0CF1
:10323000BB1CFBCFAE28BF28D101AD92BD92029638
:103240007601E3CFD301A20FB31F41705070C401C8
:103250004E0F5F1FE417F50718F42D912193FACF55
:103260001F910F91FF90EF90DF90CF90BF90AF90A4
:103270009F908F907F906F905F904F903F902F9096
:1032800008950E9411180895AA1BBB1B51E107C0A5
:10329000AA1FBB1FA617B70710F0A61BB70B881FE6
:1032A000991F5A95A9F780959095BC01CD01089575
:1032B0000E946319A59F900DB49F900DA49F800D4F
:1032C000911D11240895A29FB001B39FC001A39F37
:1032D000700D811D1124911DB29F700D811D11244F
:1032E000911D08958F929F92AF92BF92CF92DF92DD
:1032F000EF92FF92CF93DF93EC01688179818A810D
:103300009B81611571058105910521F464E279EDD8
:103310008BE597E02DE133EF41E050E00E94631A26
:1033200049015A019B01AC01A7EAB1E40E94581976
:103330006B017C01ACEEB4EFA50194010E94851AEB
:10334000C60ED71EE81EF91EF7FE06C081E0C81A99
:10335000D108E10880E8F80AC882D982EA82FB82B3
:10336000C701B6019F77DF91CF91FF90EF90DF907B
:10337000CF90BF90AF909F908F9008958F929F9223
:10338000AF92BF92CF92DF92EF92FF9260910E01C7
:1033900070910F01809110019091110161157105DB
:1033A0008105910521F464E279ED8BE597E02DE14B
:1033B00033EF41E050E00E94631A49015A019B013A
:1033C000AC01A7EAB1E40E9458196B017C01ACEE94
:1033D000B4EFA50194010E94851AC60ED71EE81EFF
:1033E000F91EF7FE06C081E0C81AD108E10880E89E
:1033F000F80AC0920E01D0920F01E0921001F092F3
:103400001101C701B6019F77FF90EF90DF90CF9039
:10341000BF90AF909F908F90089560930E0170932E
:103420000F018093100190931101089581E090E0C5
:10343000F8940C94C61ADC01CB01FC01F999FECF7B
:1034400006C0F2BDE1BDF89A319600B40D9241502C
:103450005040B8F70895F999FECF92BD81BDF89A12
:10346000992780B50895DC01A40FB51F4150504045
:1034700048F0CB01840F951F2E910E94441A4150B1
:103480005040D0F70895262FF999FECF92BD81BD07
:10349000F89A019700B4021639F01FBA20BD0FB692
:1034A000F894FA9AF99A0FBE0895262FF999FECF4B
:1034B0001FBA92BD81BD20BD0FB6F894FA9AF99A51
:1034C0000FBE01960895052E97FB1EF400940E94EE
:1034D0007A1A57FD07D00E948A1A07FC03D04EF4CF
:1034E0000C947A1A50954095309521953F4F4F4F47
:1034F0005F4F089590958095709561957F4F8F4FA0
:103500009F4F0895B7FF0C9458190E945819821BB9
:10351000930B0895A1E21A2EAA1BBB1BFD010DC03F
:10352000AA1FBB1FEE1FFF1FA217B307E407F50773
:1035300020F0A21BB30BE40BF50B661F771F881F4F
:10354000991F1A9469F760957095809590959B01E5
:10355000AC01BD01CF01089597FB072E16F400942E
:1035600007D077FD09D00E94441907FC05D03EF42E
:10357000909581959F4F0895709561957F4F08951F
:10358000EE0FFF1F0590F491E02D0994F894FFCF02
:103590001001FFFFFFFF00E100000000000001003C
:1035A0000000000100000003013C000023070000B0
:1035B0000008000808E2FFE50BA30B610B00C180C7
:1035C0008100000000000000BB072609DC07D107CE
:1035D0002208E007FE0700000000AE0AAB09660BF8
:0235E000650B79
:00000001FF
